:1000000002003602000000000000000200000000B4
:1000100000000002000000000000000200000000DC
:0E0020000000000200000000000000020000CE
:08002E00E493F608A3D9F922BE
:1000360075818075A000750900750A00C3E50994ED
:1000460014E50A94004002210D75A0007E247FDB92
:10005600DFFEDEFC75A0017E247FDBDFFEDEFC75A5
:10006600A0037E247FDBDFFEDEFC75A0077E247FF7
:10007600DBDFFEDEFC75A00F7E247FDBDFFEDEFC11
:1000860075A01F7E247FDBDFFEDEFC75A03F7E248D
:100096007FDBDFFEDEFC75A07F7E247FDBDFFEDEFE
:1000A600FC75A0FF7E247FDBDFFEDEFC75A07F7E75
:1000B600247FDBDFFEDEFC75A03F7E247FDBDFFED8
:1000C600DEFC75A01F7E247FDBDFFEDEFC75A00F45
:1000D6007E247FDBDFFEDEFC75A0077E247FDBDF70
:1000E600FEDEFC75A0037E247FDBDFFEDEFC75A052
:1000F600017E247FDBDFFEDEFC74012509F5097431
:1001060000350AF50A0142750900750A00C3E509BA
:10011600940AE50A9400502475A0007EB47F4BDF54
:10012600FEDEFC75A0FF7EB47F4BDFFEDEFC7401B5
:100136002509F5097400350AF50A80D1E50860221B
:1001460075A0557D047E817F79DFFEDEFCDDFA0039
:1001560075A0AA7D047E817F79DFFEDEFCDDFA00D4
:0401660080DA80FEBD
:00000001FF
